:100000000C9434000C943E000C943E000C943E0082
:100010000C943E000C943E000C943E000C943E0068
:100020000C943E000C943E000C943E000C943E0058
:100030000C943E000C943E000C943E000C943E0048
:100040000C943E000C943E000C943E000C943E0038
:100050000C943E000C943E000C943E000C943E0028
:100060000C943E000C943E0011241FBECFEFD8E04C
:10007000DEBFCDBF0E9463000C9485000C9400008D
:1000800052985A9A089589B182FB882780F991E0A5
:1000900089270895662311F05E9801C05E9A442373
:1000A00011F05B9801C05B9A222311F05D980895CE
:1000B0005D9A0895569A559A539A20E040E060E080
:1000C0000E944A000895CF93DF9300D0CDB7DEB7EA
:1000D000CE0101960E945A0020E041E060E0CE018E
:1000E00001960E944A00CE0102960E944000CE0175
:1000F00002960E9443008823D1F320E040E060E0B4
:0E010000CE0101960E944A00FFCFF894FFCF77
:00000001FF
