S00F0000446973706C61792E737265633F
S11300000C9447000C9451000C9451000C94510032
S11300100C9451000C9451000C9451000C94510018
S11300200C9451000C9451000C9451000C94510008
S11300300C9451000C9451000C9451000C945100F8
S11300400C9451000C9451000C9451000C945100E8
S11300500C9451000C9451000C9451000C945100D8
S11300600C9451000C945100A4007E008000820086
S11300708400860088008A008C008E009000920024
S11300809400960098009A009C009E00A000112401
S11300901FBECFEFD8E0DEBFCDBF0E94C1000C94DD
S11300A000010C94000052985A9A089589B182FB79
S11300B0882780F991E0892708953D9A3C9A579AB8
S11300C0219A0895449A88E0662314F4459A01C05D
S11300D04598299A2998660F8150B1F75F9A5F98DD
S11300E044980895E62FEF714E2F50E043315105A7
S11300F048F5FA01EC5CFF4F0C94FA0066E025C069
S11301006BE523C06FE421C066E61FC06DE61DC029
S11301106DE71BC067E019C06FE717C06FE615C035
S113012067E713C06CE711C068E50FC06EE50DC04A
S113013069E70BC061E709C060E807C069E405C06E
S113014060E003C060E001C06FE30E9462000895B4
S1130150662311F05E9801C05E9A442311F05B9807
S113016001C05B9A222311F05D9808955D9A089569
S1130170569A559A539A20E040E060E00E94A80005
S11301800895CF93DF9300D01F92CDB7DEB7CE0191
S113019001960E94B80020E041E060E0CE010196A3
S11301A00E94A800CE0102960E945300CE0102963E
S11301B00E9456008823D1F320E040E060E0CE01A5
S11301C001960E94A800CE0103960E945D0010E0F3
S11301D0612FCE0103960E9472002FE78FE492E113
S11301E0215080409040E1F700C000001F5F1331B0
S11301F079F7FFCFEE0FFF1F0590F491E02D0994DE
S1070200F894FFCF9C
S9030000FC
