:100000000C9434000C943E000C943E000C943E0082
:100010000C943E000C943E000C943E000C943E0068
:100020000C943E000C943E000C943E000C943E0058
:100030000C943E000C943E000C943E000C943E0048
:100040000C943E000C943E000C943E000C943E0038
:100050000C943E000C943E000C943E000C943E0028
:100060000C943E000C943E0011241FBECFEFD8E04C
:10007000DEBFCDBF0E9440000C945B000C940000DA
:10008000569A539A559A5E9A5B9A5D9A5E982FE7B4
:100090008FE492E1215080409040E1F700C00000E1
:1000A0005E9A2FE78FE492E1215080409040E1F783
:0A00B00000C00000EBCFF894FFCF72
:00000001FF
