:100000000C9434000C943E000C943E000C943E0082
:100010000C943E000C943E000C943E000C943E0068
:100020000C943E000C943E000C943E000C943E0058
:100030000C943E000C943E000C943E000C943E0048
:100040000C943E000C943E000C943E000C943E0038
:100050000C943E000C943E000C943E000C943E0028
:100060000C943E000C943E0011241FBECFEFD8E04C
:10007000DEBFCDBF0E94A9000C940E010C940000BD
:1000800052985A9A089589B182FB882780F991E0A5
:10009000892708953D9A3C9A579A219A0895662394
:1000A00011F05E9801C05E9A442311F05B9801C084
:1000B0005B9A222311F05D9808955D9A0895569AEF
:1000C000559A539A33E034BD24E025BD3093B000F7
:1000D0002093B10020E040E060E00E944F000895CE
:1000E000611108C084B58F7B84BD84B58F7784BDD2
:1000F0005E9A07C084B5806484BD84B5806884BD81
:1001000067BD41110AC0E0EBF0E080818F7E808303
:1001100080818F7D80835B9A0AC0E0EBF0E0808174
:10012000806180838081806280834093B40021114C
:1001300008C084B58F7E84BD84B58F7D84BD5D9AF3
:10014000089584B5806184BD84B5806284BD28BD76
:100150000895CF93DF9300D01F92CDB7DEB7CE01C5
:1001600001960E945F0020E041E060E0CE01019630
:100170000E944F00CE0102960E944000CE010296DE
:100180000E9443008823D1F320E040E060E0CE01EC
:1001900001960E944F00CE0103960E944A0000E0A3
:1001A00010E0013069F018F0023091F019C020E041
:1001B00040E0612FCE0101960E94700000E021C056
:1001C00020E0412F60E0CE0101960E94700019C02E
:1001D000212F40E060E0CE0101960E94700011C026
:1001E00020E040E060E0CE0101960E94700087ECC4
:1001F0009FEA0197F1F700C000001F5F1F3FB9F6AB
:100200000AC087EC9FEA0197F1F700C000001F5F6A
:100210001F3F39F601C000E00F5FC2CFF894FFCF57
:00000001FF
