S00D0000436C6F75642E7372656320
S11300000C944A000C9472000C9472000C947200CC
S11300100C9472000C9472000C9472000C94720094
S11300200C9472000C9472000C9431040C941D0412
S11300300C9427040C94FE030C9472000C9472002C
S11300400C9472000C9472000C94FF060C947200D1
S11300500C9472000C9472000C9472000C94720054
S11300600C9472000C94720058075A075C075E07E0
S1130070600762076407660768076A076C076E070C
S1130080700772077407760778077A073B0423071B
S11300904004280711241FBECFEFD8E0DEBFCDBF38
S11300A012E0A0E0B1E0ECEAF1E102C005900D92AB
S11300B0A032B107D9F722E0A0E2B2E001C01D925C
S11300C0AB33B207E1F710E0C8E4D0E004C02197F5
S11300D0FE010E94A207C634D107C9F70E94460355
S11300E00C94C9080C9400000895677060686093CC
S11300F07A00442329F0EAE7F0E08081806280837B
S113010008956770606460937C000895EAE7F0E006
S1130110808180648083808184FFFDCF809178001A
S113012020917900EAE7F0E090819061908390E07B
S1130130922B08950E9499040895CF92DF92EF9232
S1130140FF920F931F93CF937C016A018FE295E78F
S11301500197F1F700C00000C0E0062F10E082E232
S113016092E00E94B004892BA9F48FE59AEE0197DE
S1130170F1F700C00000CF5F8C2F0C2E000C990B00
S11301800817190764F76CE071E0C7010E94E505E0
S1130190C0E01EC08FE59AEE0197F1F700C00000A1
S11301A041E0B60182E292E00E947806C82F8823DB
S11301B051F082E292E00E94B40467E171E0C70169
S11301C00E94E50505C06DE171E0C7010E94E505E7
S11301D08C2FCF911F910F91FF90EF90DF90CF90D4
S11301E00895EF92FF920F931F93CF93DF93EC0147
S11301F07B018A0166E271E00E94D005E0ECF0E048
S1130200808185FFFDCF8DE08093C600E0ECF0E0B7
S1130210808185FFFDCF8AE08093C60048E151E0EC
S11302206AE0CE010E949D00882309F4BFC02FE735
S113023039EA83E0215030408040E1F700C00000FB
S11302406BE271E0CE010E94D005E0ECF0E0808129
S113025085FFFDCF8DE08093C600E0ECF0E0808167
S113026085FFFDCF8AE08093C60048E151E06AE053
S1130270CE010E949D00882309F498C09FE729EAD3
S113028033E0915020403040E1F700C000006EE2BE
S113029071E0CE010E94D005E0ECF0E0808185FFA2
S11302A0FDCF8DE08093C600E0ECF0E0808185FF17
S11302B0FDCF8AE08093C60048E151E062E3CE01BD
S11302C00E949D00882309F471C08FE799EA23E016
S11302D0815090402040E1F700C000006EE371E0DF
S11302E0CE010E94D005E0ECF0E0808185FFFDCFD7
S11302F08DE08093C600E0ECF0E0808185FFFDCFC7
S11303008AE08093C60048E151E062E3CE010E9496
S11303109D00882309F44AC03FE789EA93E03150FD
S113032080409040E1F700C000006AE471E0CE0133
S11303300E94D005B701CE010E94D00569E571E0A5
S1130340CE010E94D005B801CE010E94D0056BE514
S113035071E0CE010E94D005E0ECF0E0808185FFE1
S1130360FDCF8DE08093C600E0ECF0E0808185FF56
S1130370FDCF8AE08093C6002FEF3AE187EB21504E
S113038030408040E1F700C0000048E151E06AEFEE
S1130390CE010E949D00882349F09FE729EA33E0BB
S11303A0915020403040E1F700C00000DF91CF9130
S11303B01F910F91FF90EF9008950F931F93CF9388
S11303C08B01CAEF8FE295E70197F1F700C00000B7
S11303D082E292E00E94B004069740F041E0B80146
S11303E082E292E00E947806811103C0C15051F765
S11303F080E0CF911F910F9108951F93CF93DF93C6
S1130400EC01162F6DE571E00E94D005612F70E0BC
S1130410CE010E946B06E0ECF0E0808185FFFDCF09
S11304208DE08093C600E0ECF0E0808185FFFDCF95
S11304308AE08093C60068E171E0CE010E94DD018C
S1130440DF91CF911F910895EF92FF921F93CF9365
S1130450DF93EC01162F7A016AE671E00E94D00561
S1130460612F70E0CE010E946B0666E771E0CE0159
S11304700E94D005B701CE010E947206E0ECF0E0C4
S1130480808185FFFDCF8DE08093C600E0ECF0E035
S1130490808185FFFDCF8AE08093C60082E292E0EE
S11304A00E94B004892BD1F361E082E292E00E94C1
S11304B086058E3399F781E0DF91CF911F91FF90EC
S11304C0EF900895AF92BF92CF92DF92EF92FF9296
S11304D00F931F93CF93DF93EC01162F7A016901D9
S11304E04A30510578F04436510588F0483E93E08F
S11304F0590790F040315742A0F00F2EF3E3BF2E7E
S1130500F02D13C00F2EFFE2BF2EF02D0EC00F2EC4
S1130510F0E3BF2EF02D09C00F2EF1E3BF2EF02D16
S113052004C00F2EF2E3BF2EF02D6BE271E0CE017A
S11305300E94D005E0ECF0E0808185FFFDCF8DE0E6
S11305408093C600E0ECF0E0808185FFFDCF8AE077
S11305508093C60048E151E06AE0CE010E949D000C
S1130560A82E882309F486C08FE799EA23E08150F6
S113057090402040E1F700C0000068E771E0CE0140
S11305800E94D005612F70E0CE010E946B0665E8E1
S113059071E0CE010E94D005E0ECF0E0808185FF9F
S11305A0FDCF8DE08093C600E0ECF0E0808185FF14
S11305B0FDCF8AE08093C60048E151E06BE4CE01B0
S11305C00E949D00A82E882309F454C08FE799EA5D
S11305D023E0815090402040E1F700C000004B2D03
S11305E050E0612FCE010E94240282E292E00E9438
S11305F0B40464EA71E0CE010E94D005B601CE01D4
S11306000E94D00569EB71E0CE010E94D005602FF5
S113061070E0CE010E946B0664E771E0CE010E9497
S1130620D005B701CE010E947206E0ECF0E08081B3
S113063085FFFDCF8DE08093C600E0ECF0E0808183
S113064085FFFDCF8AE08093C60082E292E00E949B
S1130650B4048FE799EA23E0815090402040E1F709
S113066000C00000612FCE010E94FD0182E292E0F1
S11306700E94B4048A2DDF91CF911F910F91FF90B6
S1130680EF90DF90CF90BF90AF900895CF93DF931A
S1130690CDB7DEB767970FB6F894DEBF0FBECDBFF8
S11306A05C9A549A5C9887EB9BE00197F1F700C041
S11306B000005C9A9FE72EEE86E391502040804034
S11306C0E1F700C00000CE0101960E94740040E0F2
S11306D064E0CE0101960E94750060E0CE010196AF
S11306E00E94810001E010E02FEF30E040E052EC86
S11306F061E070E082E292E00E94DC0469EC71E067
S113070082E292E00E94E505CE0102960E949A00E0
S1130710CE0147960E94300761E0CE0147960E94C1
S11307204B07409108015091090160910A017091B1
S11307300B01CE0102960E94F10067EE71E082E2A5
S113074092E00E94E5051EE0612FCE0147960E94CB
S11307504B079FEF2EE984E2915020408040E1F75F
S113076000C00000115080F7E0900601F0900701EE
S1130770CE0101960E94860001E09701AC0160E081
S1130780CE0102960E946202882331F061E0CE011C
S113079047960E944B07D7CF61E1CE0147960E944E
S11307A04B079FEF2EE984E2915020408040E1F70F
S11307B000C00000C8CFDC01E4E6F0E09081977F40
S11307C090838FB7F89424E934E030938500209324
S11307D084008FBFE1E8F0E0908195609083EFE6BC
S11307E0F0E090819160908311963C932E9308954C
S11307F0EFE6F0E080818E7F808308951F920F9250
S11308000FB60F9211248F939F93EF93FF9384E974
S113081094E09093850080938400E0E2F2E080818C
S11308209181019691838083FF91EF919F918F91A4
S11308300F900FBE0F901F9018951F920F920FB636
S11308400F9211240F900FBE0F901F9018951F92B6
S11308500F920FB60F9211240F900FBE0F901F909E
S113086018951F920F920FB60F9211240F900FBE7E
S11308700F901F90189580E292E00E94DB03089588
S113088080E292E00E94F8030895FC018081918146
S11308900E942D0708956730710539F13CF46530E5
S11308A0710559F06630710591F00895683071054D
S11308B051F16930710591F10895E2ECF0E0808125
S11308C08083E1ECF0E080818B7F80830895E2EC0B
S11308D0F0E080818260808380818B7F8083E1EC83
S11308E0F0E080818B7F80830895E2ECF0E08081EA
S11308F08D7F8083808184608083E1ECF0E080815F
S11309008B7F80830895E2ECF0E0808186608083B1
S1130910E1ECF0E080818B7F80830895E2ECF0E0ED
S1130920808186608083E1ECF0E080818460808354
S11309300895FC01158614862FEF30E0378726874B
S1130940E2ECF0E02081208320812860208368E0AD
S113095070E00E944B043A9A429A3B98439A089555
S1130960FC01828593850895FC018091C10083FF79
S113097015C0A1ECB0E08C91877F8C93808191812C
S113098095838483978386839187808713861286D1
S1130990158614868C9188608C930CC0808191811B
S11309A095838483978386839187808713861286B1
S11309B01586148681E008958F929F92AF92BF921C
S11309C0CF92DF92EF92FF920F931F93CF93DF9317
S11309D0EC014A015B016901EE84FF84C7010E94B6
S11309E0A80799838883E80EF91EFB82EA829D8317
S11309F08C839F838E83998788871B861A861D869E
S1130A001C86DF86CE86888A998AAA8ABB8A0130A8
S1130A10110531F10230110521F0012B09F056C006
S1130A203AC060E87DE88BE590E0A50194010E945E
S1130A308007DA01C9010197A109B109AC01BD011F
S1130A407695679557954795942F252FE2ECF0E01E
S1130A5080818064808380818F77808380E039C047
S1130A6060EC76EC8DE290E0A50194010E94800791
S1130A70DA01C9010197A109B109AC01BD0176955B
S1130A80679557954795942F252FE2ECF0E08081E8
S1130A90808381E01EC060E673EE86E190E0A501EC
S1130AA094010E948007DA01C9010197A109B109E3
S1130AB0AC01BD017695679557954795942F252FE1
S1130AC0E2ECF0E08081808380E003C080E090E08D
S1130AD020E0880F8093C0002093C5009093C40049
S1130AE0E1ECF0E08081886080838081806980838C
S1130AF07894DF91CF911F910F91FF90EF90DF9049
S1130B00CF90BF90AF909F908F900895FC01828505
S1130B109385892B31F16623A9F0A481B5818D9148
S1130B20B583A48322813381A217B30721F42081E2
S1130B3031813583248322853385215031093387DC
S1130B4022870895A681B7818D91B783A6832281D8
S1130B503381A217B30731F420813181378326838F
S1130B60089580E00895E0ECF0E0808185FFFDCFFA
S1130B706093C6000895429880ED8A95F1F788E065
S1130B8060FF02C0429A01C04298669590ED9A9522
S1130B90F1F78150A9F7429A80ED8A95F1F708950B
S1130BA00F931F93CF93DF93EB016881662341F08A
S1130BB08C012196C8010E94B30569916111FACF95
S1130BC0DF91CF911F910F9108950F931F93CF93AE
S1130BD0DF93EB016881662341F08C012196C80103
S1130BE00E94BB0569916111FACFDF91CF911F91EA
S1130BF00F9108958F929F92AF92BF92CF92DF92FE
S1130C00EF92FF921F93CF93DF93CDB7DEB72A976E
S1130C100FB6F894DEBF0FBECDBF6C01CB01BA0195
S1130C2010E00F2EFAE08F2E912CA12CB12CF02D78
S1130C30EE24E394F12CEC0EFD1EE10EF11CA50153
S1130C4094010E948007605DF70160831F5F622F3B
S1130C50732F842F952F611571058105910541F737
S1130C60112369F01150E1E0F0E0EC0FFD1FE10FFA
S1130C70F11D6081C6010E94B3051111F3CF2A96BC
S1130C800FB6F894DEBF0FBECDBFDF91CF911F9199
S1130C90FF90EF90DF90CF90BF90AF909F908F9098
S1130CA00895CF92DF92EF92FF92CF93DF93EC01FE
S1130CB06A017B0177231CF46DE20E94B305B7013E
S1130CC0A601CE010E94FA05DF91CF91FF90EF902B
S1130CD0DF90CF900895AB01770F660B770B0E94DE
S1130CE051060895AB0160E070E00E94FA05089592
S1130CF0BF92CF92DF92EF92FF920F931F93CF9305
S1130D00DF93DC01FB0180818823D1F03196C0E0C0
S1130D10CF5F91919111FCCF19C0F601E10FF11D44
S1130D2000816B2DC7010E948605081302C01F5F56
S1130D3001C010E01C1731F0D15079F780E01AC0DF
S1130D4080E018C081E016C080E014C01A962D918E
S1130D503C911B97D22F14968D919C9115971796C1
S1130D609C938E931697222379F3B42E6B017D0105
S1130D7010E0D3CFDF91CF911F910F91FF90EF90AF
S1130D80DF90CF90BF900895E2E2F2E0A085B185B4
S1130D908091C6008C938085918501969187808788
S1130DA0228133818217930720F08081918191877A
S1130DB08087E2E2F2E0428553858685978548176D
S1130DC05907A9F48485958501969587848784813C
S1130DD0958101962817390729F48081918195839B
S1130DE08483089590932702809326020895E2E273
S1130DF0F2E08285938501969387828708951F92F6
S1130E000F920FB60F9211242F933F934F935F933A
S1130E106F937F938F939F93AF93BF93EF93FF93BE
S1130E200E94C406FF91EF91BF91AF919F918F9162
S1130E307F916F915F914F913F912F910F900FBED2
S1130E400F901F90189582E292E00E9499040895F1
S1130E5082E292E00E94450408950E9440080895A9
S1130E60569A559A539A5E9A5D9A5B9A3D9A3C9A21
S1130E70579A219A0895449A88E0662314F4459A6F
S1130E8001C04598299A2998660F8150B1F75F9A55
S1130E905F9844980895E62FEF714E2F50E0FA01C1
S1130EA03197E231F10540F5EC5CFF4F0C94A20759
S1130EB066E023C06BE521C06FE41FC066E61DC079
S1130EC06DE61BC06DE719C067E017C06FE715C07A
S1130ED06FE613C067E711C06CE70FC068E50DC08B
S1130EE06EE50BC069E709C061E707C060E805C0AB
S1130EF069E403C060E001C06FE30E943B0708950A
S1130F00A1E21A2EAA1BBB1BFD010DC0AA1FBB1F09
S1130F10EE1FFF1FA217B307E407F50720F0A21B7B
S1130F20B30BE40BF50B661F771F881F991F1A94E8
S1130F3069F760957095809590959B01AC01BD0112
S1130F40CF010895EE0FFF1F0590F491E02D099451
S1130F500F931F93CF93DF938230910510F482E0B7
S1130F6090E0E0913902F0913A0220E030E0A0E014
S1130F70B0E0309719F14081518102811381481703
S1130F805907C8F08417950769F4109731F0129641
S1130F900C93129713961C9327C000933902109355
S1130FA03A0222C02115310519F04217530718F4EB
S1130FB09A01BD01EF01DF01F801DBCF21153105F5
S1130FC0F9F0281B390B2430310580F48A819B8188
S1130FD06115710521F0FB019383828304C0909312
S1130FE03A0280933902FE01329644C0FE01E20FB8
S1130FF0F31F8193919322503109398328833AC096
S11310002091370230913802232B41F420910201C0
S1131010309103013093380220933702209100016C
S1131020309101012115310541F42DB73EB74091AE
S1131030040150910501241B350BE0913702F09116
S11310403802E217F307A0F42E1B3F0B28173907C9
S113105078F0AC014E5F5F4F2417350748F04E0F10
S11310605F1F50933802409337028193919302C0DB
S1131070E0E0F0E0CF01DF91CF911F910F9108954F
S1131080CF93DF93009709F481C0FC013297138258
S11310901282A0913902B0913A02109781F4208112
S11310A03181820F931F2091370230913802281723
S11310B0390751F5F0933802E093370267C0ED0128
S11310C020E030E0CE17DF0740F44A815B819E01C7
S11310D041155105F1F0EA01F5CFD383C283408174
S11310E05181840F951FC817D90759F488819981B4
S11310F0840F951F0296918380838A819B819383B9
S113110082832115310529F4F0933A02E0933902E0
S11311103DC0E901FB83EA8349915991C40FD51F6E
S1131120EC17FD0761F480819181840F951F02966D
S1131130E90199838883828193819B838A83E0E098
S1131140F0E012968D919C911397009719F0FD0190
S1131150DC01F7CF8D919C9111979D012E5F3F4F3C
S1131160820F931F209137023091380228173907D4
S113117069F4309729F410923A021092390202C0AD
S113118013821282B0933802A0933702DF91CF9179
S1131190089510E0C8E4D0E004C0FE010E94A20754
S10F11A02196CA34D107C9F7F894FFCF98
S11311AC00003B022000FE010F0219022054494D9D
S11311BC454F55540D0A00204F4B0D0A002043484F
S11311CC5942410D0A0041544530004154004154E8
S11311DC2B43574D4F44455F4355523D31004154C9
S11311EC2B4349504D55583D310041542B43574ADC
S11311FC41505F4355523D2200222C220041542B76
S113120C434950434C4F53453D0041542B434950A3
S113121C53454E443D002C0041542B4349505354E8
S113122C4152543D002C22544350222C22617069AB
S113123C2E7468696E67737065616B2E636F6D22B3
S113124C2C383000474554202F7570646174653F09
S113125C6170695F6B65793D00266669656C640035
S113126C41542B4349465352004D4F44554C205640
S113127C2052455A494D45204B4C49454E54202D3E
S113128C205354410D0A000A204D4F44554C204A1A
S113129C45204E4153544156454E590D0A00515365
S11312AC425153524D41414B3937444242470068F5
S11312BC616D74616C616C610072756765720000BC
S9030000FC
