:100000000C9434000C9451000C9451000C94510049
:100010000C9451000C9451000C9451000C9451001C
:100020000C9451000C9451000C9451000C9451000C
:100030000C9451000C9451000C9451000C945100FC
:100040000C9451000C9451000C9451000C945100EC
:100050000C9451000C9451000C9451000C945100DC
:100060000C9451000C94510011241FBECFEFD8E026
:10007000DEBFCDBF11E0A0E0B1E0E8E3FCE002C0EC
:1000800005900D92A836B107D9F721E0A8E6B1E0B6
:1000900001C01D92A237B207E1F70E947B000C94C9
:1000A0001A060C94000052985A9A089589B182FB5E
:1000B000882780F991E0892708953D9A3C9A579ABC
:1000C000219A0895662311F05E9801C05E9A442338
:1000D00011F05B9801C05B9A222311F05D9808959E
:1000E0005D9A0895569A559A539A20E040E060E050
:1000F0000E9462000895CF93DF9300D000D01F923A
:10010000CDB7DEB7CE0101960E94720020E041E03B
:1001100060E0CE0101960E946200CE0102960E942C
:100120005300CE0102960E9456008823D1F320E0AE
:1001300040E060E0CE0101960E946200CE0103968D
:100140000E945D00CE0104960E94D5008FE295E7E3
:100150000197F1F700C0000086E091E00E94DE0107
:100160000F2EFDE3EF2EF1E0FF2EF02D0F2EF8E61F
:10017000CF2EF1E0DF2EF02D0FE411E0FF92EF9291
:100180000E94C801F601808191810E948A0199270D
:100190009F938F931F930F930E94C8010F900F900E
:1001A0000F900F900F900F90E9CFCF93DF93EC015A
:1001B000519A1092C5008CE08093C400E2ECF0E00C
:1001C000808186608083E1ECF0E0808188618083BB
:1001D000E0ECF0E08081826080833A9A5A9A5B9AE0
:1001E0006BE371E087E191E00E943F01998388838E
:1001F000E8E6F1E09183808393838283DF91CF915E
:1002000008953A9A429820ED2A95F1F798E080FFF8
:1002100002C0429A01C04298869520ED2A95F1F7D6
:100220009150A9F7429A80ED8A95F1F70895CF93FE
:10023000C82F8A3029F460E070E08DE00E94170139
:100240008C2F0E94010180E090E0CF9108953399B6
:10025000FECF48E64A95F1F798E080E0282F30E09D
:1002600035952795822F4CEC4A95F1F733998068A4
:100270009150A1F708950E94270190E008950F93EF
:100280001F93CF93DF93009731F46115710519F433
:1002900080E090E03AC08B01EC016EE070E081E01C
:1002A00090E00E94EF03FC01892B91F380E88383A7
:1002B0000115110571F01387028781E8838380910E
:1002C000680190916901892B21F4F0936901E09311
:1002D00068012097C9F0D187C087838182608383BA
:1002E00080916A0190916B01892B71F4F0936B01FD
:1002F000E0936A0180916C0190916D01892B21F44A
:10030000F0936D01E0936C01CF01DF91CF911F91CC
:100310000F910895CF93DF93EC012B8120FF33C021
:1003200026FF0AC02F7B2B838E819F8101969F839E
:100330008E838A8190E029C022FF0FC0E881F98175
:100340008081082E000C990B009719F420622B83F2
:100350001AC03196F983E8830EC0EA85FB850995BA
:1003600097FF09C02B81019611F080E201C080E166
:10037000822B8B8308C02E813F812F5F3F4F3F83AD
:100380002E83992702C08FEF9FEFDF91CF910895C1
:10039000A0E0B0E0EEECF1E00C94F305AE014B5FB1
:1003A0005F4FFA0161917191AF0180916A01909163
:1003B0006B010E940E02E2E00C940F060F931F9354
:1003C000CF93DF93E0916A01F0916B01238121FFCC
:1003D0001BC08C01D0E0C0E0F80181918F016091D9
:1003E0006A0170916B01DB011896ED91FC911997F0
:1003F000882331F00995892B79F3DFEFCFEFECCF2C
:100400008AE00995892B19F08FEF9FEF02C08D2F9D
:100410009C2FDF91CF911F910F910895ABE0B0E039
:10042000E4E1F2E00C94E3056C017B018A01FC013C
:1004300017821682838181FFCCC1CE0101963C01D7
:10044000F6019381F70193FD859193FF81917F01DF
:10045000882309F4BAC1853239F493FD859193FF5D
:1004600081917F01853229F4B60190E00E9449050F
:10047000E7CF912C212C312CFFE1F315D8F08B32F2
:1004800079F038F4803279F08332A1F4232D2061A1
:100490001DC08D3261F0803369F4232D216016C0B8
:1004A000832D8260382EE32DE4603E2E2AC0F32D8A
:1004B000F8601DC037FC2DC020ED280F2A3040F019
:1004C0008E32B9F436FC81C1232D2064322E19C03E
:1004D00036FE06C08AE0989E200D1124922E11C08F
:1004E000EAE02E9E200D1124222EF32DF0623F2EE5
:1004F00008C08C3621F4832D8068382E02C08836DF
:1005000041F4F70193FD859193FF81917F01811162
:10051000B3CF982F9F7D9554933028F40C5F1F4FD5
:100520009FE399830DC0833631F0833771F08335B3
:1005300009F059C021C0F801808189830E5F1F4FE7
:1005400088248394912C530113C02801F2E04F0EAC
:10055000511CF801A080B18036FE03C0692D70E007
:1005600002C06FEF7FEFC5010E943E054C01820182
:10057000F32DFF773F2E16C0280122E0420E511CBA
:10058000F801A080B18036FE03C0692D70E002C082
:100590006FEF7FEFC5010E942C054C01F32DF06831
:1005A0003F2E820133FC1BC0822D90E088169906F5
:1005B000B0F4B60180E290E00E9449052A94F4CF9D
:1005C000F50137FC859137FE81915F01B60190E01E
:1005D0000E94490521102A9421E0821A9108811471
:1005E000910471F7E8C0843611F0893641F5F801BD
:1005F00037FE07C060817181828193810C5F1F4F3C
:1006000008C060817181072E000C880B990B0E5F6A
:100610001F4FF32DFF763F2E97FF09C090958095D1
:10062000709561957F4F8F4F9F4FF0683F2E2AE066
:1006300030E0A3010E948505882E861845C08537C5
:1006400031F4232D2F7EB22E2AE030E025C0932DE9
:10065000997FB92E8F36C1F018F4883579F0B5C07E
:10066000803719F0883721F0B0C0E92FE061BE2E45
:10067000B4FE0DC0FB2DF460BF2E09C034FE0AC0CD
:10068000292F2660B22E06C028E030E005C020E108
:1006900030E002C020E132E0F801B7FE07C060811F
:1006A0007181828193810C5F1F4F06C060817181CF
:1006B00080E090E00E5F1F4FA3010E948505882E09
:1006C0008618FB2DFF773F2E36FE0DC0232D2E7F83
:1006D000A22E891458F434FE0BC032FC09C0832DBD
:1006E0008E7EA82E05C0B82CA32C03C0B82C01C048
:1006F000B92CA4FE0FC0FE01E80DF11D80818033EE
:1007000021F49A2D997EA92E09C0A2FE06C0B394A9
:10071000B39404C08A2D867809F0B394A3FC11C069
:10072000A0FE06C0B21488F4280C922C9B180EC0B0
:10073000B21460F4B60180E290E00E944905B394DF
:10074000F7CFB21418F42B1802C0982C212CA4FE59
:1007500010C0B60180E390E00E944905A2FE17C0D8
:10076000A1FC03C088E790E002C088E590E0B601F4
:100770000CC08A2D867859F0A1FE02C08BE201C020
:1007800080E2A7FC8DE2B60190E00E944905891441
:1007900038F4B60180E390E00E9449059A94F7CFBF
:1007A0008A94F301E80DF11D8081B60190E00E946A
:1007B00049058110F5CF222009F442CEB60180E22E
:1007C00090E00E9449052A94F6CFF6018681978130
:1007D00002C08FEF9FEF2B96E2E10C94FF050F9381
:1007E0001F93CF93DF93869F8001879F100D969F65
:1007F000100D1124C8010E940B04EC01009729F090
:10080000A80160E070E00E943705CE01DF91CF9132
:100810001F910F9108950F931F93CF93DF93823011
:10082000910510F482E090E0E0917001F091710187
:1008300020E030E0A0E0B0E0309719F14081518134
:100840000281138148175907C8F08417950769F486
:10085000109731F012960C93129713961C9327C0A1
:10086000009370011093710122C02115310519F018
:100870004217530718F49A01BD01EF01DF01F80197
:10088000DBCF21153105F9F0281B390B2430310558
:1008900080F48A819B816115710521F0FB019383AE
:1008A000828304C09093710180937001FE0132969F
:1008B00044C0FE01E20FF31F81939193225031094E
:1008C000398328833AC020916E0130916F01232B28
:1008D00041F4209102013091030130936F01209384
:1008E0006E0120910001309101012115310541F483
:1008F0002DB73EB74091040150910501241B350BE3
:10090000E0916E01F0916F01E217F307A0F42E1B46
:100910003F0B2817390778F0AC014E5F5F4F241763
:10092000350748F04E0F5F1F50936F0140936E01E3
:100930008193919302C0E0E0F0E0CF01DF91CF918D
:100940001F910F910895CF93DF93009709F481C011
:10095000FC01329713821282A0917001B091710153
:10096000109781F420813181820F931F20916E01B5
:1009700030916F012817390751F5F0936F01E0931B
:100980006E0167C0ED0120E030E0CE17DF0740F4D4
:100990004A815B819E0141155105F1F0EA01F5CFD5
:1009A000D383C28340815181840F951FC817D90713
:1009B00059F488819981840F951F029691838083D1
:1009C0008A819B81938382832115310529F4F093D9
:1009D0007101E09370013DC0E901FB83EA83499115
:1009E0005991C40FD51FEC17FD0761F480819181E7
:1009F000840F951F0296E9019983888382819381F0
:100A00009B838A83E0E0F0E012968D919C9113978E
:100A1000009719F0FD01DC01F7CF8D919C911197A2
:100A20009D012E5F3F4F820F931F20916E013091E9
:100A30006F012817390769F4309729F41092710172
:100A40001092700102C013821282B0936F01A093C2
:100A50006E01DF91CF910895FC01059061507040C7
:100A60000110D8F7809590958E0F9F1F0895DC0197
:100A700001C06D9341505040E0F70895FC01615072
:100A8000704001900110D8F7809590958E0F9F1FB0
:100A900008950F931F93CF93DF93FB01238121FDD3
:100AA00003C08FEF9FEF2CC022FF16C046815781F5
:100AB000248135814217530744F4A081B1819D01FF
:100AC0002F5F3F4F318320838C93268137812F5FA7
:100AD0003F4F3783268314C08B01EC01FB01008458
:100AE000F185E02D0995892BE1F6D80116968D91B7
:100AF0009C911797019617969C938E931697CE010B
:100B0000DF91CF911F910F910895FA01AA27283004
:100B100051F1203181F1E8946F936E7F6E5F7F4FCA
:100B20008F4F9F4FAF4FB1E03ED0B4E03CD0670F46
:100B3000781F891F9A1FA11D680F791F8A1F911D99
:100B4000A11D6A0F711D811D911DA11D20D009F4E9
:100B500068943F912AE0269F11243019305D31932B
:100B6000DEF6CF010895462F4770405D4193B3E014
:100B70000FD0C9F7F6CF462F4F70405D4A3318F0BB
:100B8000495D31FD4052419302D0A9F7EACFB4E06C
:100B9000A6959795879577956795BA95C9F7009724
:100BA0006105710508959B01AC010A2E06945795C5
:100BB000479537952795BA95C9F7620F731F841F1C
:100BC000951FA01D08952F923F924F925F926F92B2
:100BD0007F928F929F92AF92BF92CF92DF92EF92CD
:100BE000FF920F931F93CF93DF93CDB7DEB7CA1B4E
:100BF000DB0B0FB6F894DEBF0FBECDBF09942A8879
:100C0000398848885F846E847D848C849B84AA8420
:100C1000B984C884DF80EE80FD800C811B81AA81AD
:100C2000B981CE0FD11D0FB6F894DEBF0FBECDBF78
:080C3000ED010895F894FFCFD7
:100C380000007201200048656C6C6F2066726F6D51
:100C480020496F5420626F6172642E205468697362
:100C58002069732053772073657269616C20696E0F
:100C680074657266616365203A29200D00707265AB
:100C7800737320616E79206B6579203A2020000D0E
:100C88000A0A596F752070726573736564203A207B
:080C9800202563200D0A000075
:00000001FF
