:100000000C9434000C9451000C9451000C94510049
:100010000C9451000C9451000C9451000C9451001C
:100020000C9451000C9451000C9451000C9451000C
:100030000C9451000C9451000C9451000C945100FC
:100040000C9451000C9451000C9451000C945100EC
:100050000C9451000C9451000C9451000C945100DC
:100060000C9451000C94510011241FBECFEFD8E026
:10007000DEBFCDBF11E0A0E0B1E0E4EEFBE002C0E6
:1000800005900D92AA34B107D9F721E0AAE4B1E0B6
:1000900001C01D92A435B207E1F70E947B000C94C9
:1000A000F0050C94000052985A9A089589B182FB89
:1000B000882780F991E0892708953D9A3C9A579ABC
:1000C000219A0895662311F05E9801C05E9A442338
:1000D00011F05B9801C05B9A222311F05D9808959E
:1000E0005D9A0895569A559A539A20E040E060E050
:1000F0000E9462000895CF93DF9300D000D01F923A
:10010000CDB7DEB7CE0101960E94720020E041E03B
:1001100060E0CE0101960E946200CE0102960E942C
:100120005300CE0102960E9456008823D1F320E0AE
:1001300040E060E0CE0101960E946200CE0103968D
:100140000E945D00CE0104960E94EC0086E091E0E2
:100150000E94B4010F2EF0E2EF2EF1E0FF2EF02D01
:100160000F2EFAE4CF2EF1E0DF2EF02D02E311E0A6
:10017000FF92EF920E949E01F601808191810E9480
:10018000600199279F938F931F930F930E949E0165
:100190000F900F900F900F900F900F90E9CFCF938B
:1001A000C82F8A3029F460E070E08DE00E94CF0013
:1001B000E0ECF0E0808185FFFDCFC093C60080E0D9
:1001C00090E0CF910895E0ECF0E080818823ECF797
:1001D0008091C60090E00895CF93DF93EC01519A8F
:1001E0001092C5008CE08093C400E2ECF0E08081C6
:1001F00086608083E1ECF0E0808188618083E0ECC0
:10020000F0E080818260808363EE70E08FEC90E0AC
:100210000E94150199838883EAE4F1E09183808349
:1002200093838283DF91CF9108950F931F93CF9390
:10023000DF93009731F46115710519F480E090E0C7
:100240003AC08B01EC016EE070E081E090E00E942A
:10025000C503FC01892B91F380E883830115110507
:1002600071F01387028781E8838380914A0190911E
:100270004B01892B21F4F0934B01E0934A01209725
:10028000C9F0D187C08783818260838380914C01CC
:1002900090914D01892B71F4F0934D01E0934C0145
:1002A00080914E0190914F01892B21F4F0934F01E1
:1002B000E0934E01CF01DF91CF911F910F910895EF
:1002C000CF93DF93EC012B8120FF33C026FF0AC0C0
:1002D0002F7B2B838E819F8101969F838E838A81C2
:1002E00090E029C022FF0FC0E881F9818081082EAB
:1002F000000C990B009719F420622B831AC03196D9
:10030000F983E8830EC0EA85FB85099597FF09C04C
:100310002B81019611F080E201C080E1822B8B835A
:1003200008C02E813F812F5F3F4F3F832E83992747
:1003300002C08FEF9FEFDF91CF910895A0E0B0E072
:10034000E4EAF1E00C94C905AE014B5F5F4FFA019E
:1003500061917191AF0180914C0190914D010E948A
:10036000E401E2E00C94E5050F931F93CF93DF9334
:10037000E0914C01F0914D01238121FF1BC08C01C4
:10038000D0E0C0E0F80181918F0160914C01709143
:100390004D01DB011896ED91FC911997882331F0FE
:1003A0000995892B79F3DFEFCFEFECCF8AE0099540
:1003B000892B19F08FEF9FEF02C08D2F9C2FDF91BB
:1003C000CF911F910F910895ABE0B0E0EAEEF1E01C
:1003D0000C94B9056C017B018A01FC01178216821D
:1003E000838181FFCCC1CE0101963C01F60193814E
:1003F000F70193FD859193FF81917F01882309F493
:10040000BAC1853239F493FD859193FF81917F01C3
:10041000853229F4B60190E00E941F05E7CF912CA8
:10042000212C312CFFE1F315D8F08B3279F038F420
:10043000803279F08332A1F4232D20611DC08D32EA
:1004400061F0803369F4232D216016C0832D826012
:10045000382EE32DE4603E2E2AC0F32DF8601DC037
:1004600037FC2DC020ED280F2A3040F08E32B9F431
:1004700036FC81C1232D2064322E19C036FE06C001
:100480008AE0989E200D1124922E11C0EAE02E9E43
:10049000200D1124222EF32DF0623F2E08C08C3641
:1004A00021F4832D8068382E02C0883641F4F7018C
:1004B00093FD859193FF81917F018111B3CF982F97
:1004C0009F7D9554933028F40C5F1F4F9FE39983D1
:1004D0000DC0833631F0833771F0833509F059C090
:1004E00021C0F801808189830E5F1F4F8824839487
:1004F000912C530113C02801F2E04F0E511CF8015A
:10050000A080B18036FE03C0692D70E002C06FEF9D
:100510007FEFC5010E9414054C018201F32DFF7786
:100520003F2E16C0280122E0420E511CF801A08087
:10053000B18036FE03C0692D70E002C06FEF7FEF1F
:10054000C5010E9402054C01F32DF0683F2E820187
:1005500033FC1BC0822D90E088169906B0F4B601DA
:1005600080E290E00E941F052A94F4CFF50137FC49
:10057000859137FE81915F01B60190E00E941F05D1
:1005800021102A9421E0821A91088114910471F7B4
:10059000E8C0843611F0893641F5F80137FE07C00E
:1005A00060817181828193810C5F1F4F08C06081DF
:1005B0007181072E000C880B990B0E5F1F4FF32DD6
:1005C000FF763F2E97FF09C09095809570956195B5
:1005D0007F4F8F4F9F4FF0683F2E2AE030E0A301FE
:1005E0000E945B05882E861845C0853731F4232D7F
:1005F0002F7EB22E2AE030E025C0932D997FB92EB0
:100600008F36C1F018F4883579F0B5C0803719F00D
:10061000883721F0B0C0E92FE061BE2EB4FE0DC0D6
:10062000FB2DF460BF2E09C034FE0AC0292F2660BE
:10063000B22E06C028E030E005C020E130E002C064
:1006400020E132E0F801B7FE07C06081718182814C
:1006500093810C5F1F4F06C06081718180E090E044
:100660000E5F1F4FA3010E945B05882E8618FB2D8D
:10067000FF773F2E36FE0DC0232D2E7FA22E89142C
:1006800058F434FE0BC032FC09C0832D8E7EA82E98
:1006900005C0B82CA32C03C0B82C01C0B92CA4FEF3
:1006A0000FC0FE01E80DF11D8081803321F49A2DE9
:1006B000997EA92E09C0A2FE06C0B394B39404C0CB
:1006C0008A2D867809F0B394A3FC11C0A0FE06C061
:1006D000B21488F4280C922C9B180EC0B21460F44B
:1006E000B60180E290E00E941F05B394F7CFB214E8
:1006F00018F42B1802C0982C212CA4FE10C0B601AF
:1007000080E390E00E941F05A2FE17C0A1FC03C079
:1007100088E790E002C088E590E0B6010CC08A2D21
:10072000867859F0A1FE02C08BE201C080E2A7FCEE
:100730008DE2B60190E00E941F05891438F4B601DD
:1007400080E390E00E941F059A94F7CF8A94F3010A
:10075000E80DF11D8081B60190E00E941F05811017
:10076000F5CF222009F442CEB60180E290E00E944B
:100770001F052A94F6CFF6018681978102C08FEF7C
:100780009FEF2B96E2E10C94D5050F931F93CF9327
:10079000DF93869F8001879F100D969F100D112477
:1007A000C8010E94E103EC01009729F0A80160E074
:1007B00070E00E940D05CE01DF91CF911F910F9146
:1007C00008950F931F93CF93DF938230910510F418
:1007D00082E090E0E0915201F091530120E030E09E
:1007E000A0E0B0E0309719F140815181028113817E
:1007F00048175907C8F08417950769F4109731F026
:1008000012960C93129713961C9327C000935201D3
:100810001093530122C02115310519F042175307D7
:1008200018F49A01BD01EF01DF01F801DBCF2115BA
:100830003105F9F0281B390B2430310580F48A8109
:100840009B816115710521F0FB019383828304C0B4
:100850009093530180935201FE01329644C0FE01F1
:10086000E20FF31F8193919322503109398328833A
:100870003AC02091500130915101232B41F4209135
:1008800002013091030130935101209350012091D6
:100890000001309101012115310541F42DB73EB71A
:1008A0004091040150910501241B350BE09150014A
:1008B000F0915101E217F307A0F42E1B3F0B28170C
:1008C000390778F0AC014E5F5F4F2417350748F0C9
:1008D0004E0F5F1F509351014093500181939193AC
:1008E00002C0E0E0F0E0CF01DF91CF911F910F91C6
:1008F0000895CF93DF93009709F481C0FC013297EC
:1009000013821282A0915201B0915301109781F489
:1009100020813181820F931F20915001309151012C
:100920002817390751F5F0935101E093500167C042
:10093000ED0120E030E0CE17DF0740F44A815B8113
:100940009E0141155105F1F0EA01F5CFD383C28331
:1009500040815181840F951FC817D90759F48881A8
:100960009981840F951F0296918380838A819B8150
:10097000938382832115310529F4F0935301E09389
:1009800052013DC0E901FB83EA8349915991C40FAB
:10099000D51FEC17FD0761F480819181840F951FAD
:1009A0000296E90199838883828193819B838A835C
:1009B000E0E0F0E012968D919C911397009719F06A
:1009C000FD01DC01F7CF8D919C9111979D012E5F68
:1009D0003F4F820F931F20915001309151012817F2
:1009E000390769F4309729F410925301109252019B
:1009F00002C013821282B0935101A0935001DF9183
:100A0000CF910895FC010590615070400110D8F716
:100A1000809590958E0F9F1F0895DC0101C06D9306
:100A200041505040E0F70895FC0161507040019042
:100A30000110D8F7809590958E0F9F1F08950F9302
:100A40001F93CF93DF93FB01238121FD03C08FEF21
:100A50009FEF2CC022FF16C046815781248135812B
:100A60004217530744F4A081B1819D012F5F3F4F8E
:100A7000318320838C93268137812F5F3F4F3783CB
:100A8000268314C08B01EC01FB010084F185E02D6D
:100A90000995892BE1F6D80116968D919C911797AF
:100AA000019617969C938E931697CE01DF91CF9166
:100AB0001F910F910895FA01AA27283051F1203192
:100AC00081F1E8946F936E7F6E5F7F4F8F4F9F4FE2
:100AD000AF4FB1E03ED0B4E03CD0670F781F891F24
:100AE0009A1FA11D680F791F8A1F911DA11D6A0FF2
:100AF000711D811D911DA11D20D009F468943F91A5
:100B00002AE0269F11243019305D3193DEF6CF01A3
:100B10000895462F4770405D4193B3E00FD0C9F769
:100B2000F6CF462F4F70405D4A3318F0495D31FDD6
:100B30004052419302D0A9F7EACFB4E0A695979529
:100B4000879577956795BA95C9F7009761057105FF
:100B500008959B01AC010A2E069457954795379549
:100B60002795BA95C9F7620F731F841F951FA01DA3
:100B700008952F923F924F925F926F927F928F9241
:100B80009F92AF92BF92CF92DF92EF92FF920F931C
:100B90001F93CF93DF93CDB7DEB7CA1BDB0B0FB626
:100BA000F894DEBF0FBECDBF09942A8839884888E3
:100BB0005F846E847D848C849B84AA84B984C88479
:100BC000DF80EE80FD800C811B81AA81B981CE0F70
:100BD000D11D0FB6F894DEBF0FBECDBFED01089555
:040BE000F894FFCFB7
:100BE40000005401200048656C6C6F2066726F6DC4
:100BF40020496F5420626F617264203A29200D00ED
:100C0400707265737320616E79206B6579203A2068
:100C140020000D0A0A596F7520707265737365643C
:0A0C2400203A20202563200D0A006D
:00000001FF
