S015000050686F746F7265736973746F722E737265638A
S11300000C9434000C9451000C9451000C94510045
S11300100C9451000C9451000C9451000C94510018
S11300200C9451000C9451000C9451000C94510008
S11300300C9451000C9451000C9451000C945100F8
S11300400C9451000C9451000C9451000C945100E8
S11300500C9451000C9451000C9451000C945100D8
S11300600C9451000C94510011241FBECFEFD8E022
S1130070DEBFCDBF11E0A0E0B1E0E6E4FCE002C0E9
S113008005900D92A235B107D9F721E0A2E5B1E0C0
S113009001C01D92AC35B207E1F70E94BD000C947B
S11300A021060C940000E4E6F0E080818E7F8083DA
S11300B008956770606860937A00442329F0EAE742
S11300C0F0E08081806280830895ECE7F0E0808135
S11300D0807F808380816F70682B60830895ECE754
S11300E0F0E080818F73808380816295660F660F54
S11300F0607C682B60830895ECE7F0E080818F7D5D
S11301008083EAE7F0E0808180648083808184FFDB
S1130110FDCF8091780020917900EAE7F0E09081AA
S11301209061908390E0922B089552985A9A089582
S113013089B182FB882780F991E0892708953D9A47
S11301403C9A579A219A0895662311F05E9801C04B
S11301505E9A442311F05B9801C05B9A222311F04C
S11301605D9808955D9A0895569A559A539A20E099
S113017040E060E00E94A4000895CF93DF9300D094
S113018000D000D0CDB7DEB7CE0101960E94B400F6
S113019020E041E060E0CE0101960E94A400CE017F
S11301A002960E949500CE0102960E949800882330
S11301B0D1F320E040E060E0CE0101960E94A4006B
S11301C0CE0103960E949F00CE0104960E941A015C
S11301D086E091E00E94E501CE0106960E9453005C
S11301E040E064E0CE0106960E94590060E0CE0132
S11301F006960E94650061E0CE0106960E946F009B
S11302000DE311E0CE0106960E947C009F938F932C
S11302101F930F930E94CF012FE78FE492E12150A7
S113022080409040E1F700C000000F900F900F90C5
S11302300F90E8CFCF93DF93EC01519A1092C50051
S11302408CE08093C400E2ECF0E0808186608083DF
S1130250E1ECF0E0808188618083E0ECF0E0808173
S1130260826080833A9A5A9A5B9A60E871E08CE5DE
S113027091E00E94840199838883E2E5F1E091830F
S1130280808393838283DF91CF9108953A9A429831
S113029020ED2A95F1F798E080FF02C0429A01C050
S11302A04298869520ED2A95F1F79150A9F7429A44
S11302B080ED8A95F1F70895CF93C82F8A3029F4F9
S11302C060E070E08DE00E945C018C2F0E9446018A
S11302D080E090E0CF9108953399FECF48E64A95A7
S11302E0F1F798E080E0282F30E035952795822FAC
S11302F04CEC4A95F1F7339980689150A1F7089531
S11303000E946C0190E008950F931F93CF93DF93A5
S1130310009731F46115710519F480E090E03AC05A
S11303208B01EC016EE070E081E090E00E94F60346
S1130330FC01892B91F380E883830115110571F089
S11303401387028781E8838380915201909153013E
S1130350892B21F4F0935301E09352012097C9F0C3
S1130360D187C08783818260838380915401909177
S11303705501892B71F4F0935501E0935401809158
S1130380560190915701892B21F4F0935701E09382
S11303905601CF01DF91CF911F910F910895A0E0F5
S11303A0B0E0E5EDF1E00C94FA05AE014B5F5F4F70
S11303B0FA0161917191AF018091540190915501BD
S11303C00E941502E2E00C9416060F931F93CF933C
S11303D0DF93E0915401F0915501238121FF1BC06B
S11303E08C01D0E0C0E0F80181918F01609154014B
S11303F070915501DB011896ED91FC9119978823B2
S113040031F00995892B79F3DFEFCFEFECCF8AE058
S11304100995892B19F08FEF9FEF02C08D2F9C2F28
S1130420DF91CF911F910F910895ABE0B0E0EBE124
S1130430F2E00C94EA056C017B018A01FC0117824D
S11304401682838181FFCCC1CE0101963C01F60165
S11304509381F70193FD859193FF81917F01882317
S113046009F4BAC1853239F493FD859193FF8191E2
S11304707F01853229F4B60190E00E945005E7CF50
S1130480912C212C312CFFE1F315D8F08B3279F02B
S113049038F4803279F08332A1F4232D20611DC019
S11304A08D3261F0803369F4232D216016C0832DD1
S11304B08260382EE32DE4603E2E2AC0F32DF860CE
S11304C01DC037FC2DC020ED280F2A3040F08E329D
S11304D0B9F436FC81C1232D2064322E19C036FEB6
S11304E006C08AE0989E200D1124922E11C0EAE0E5
S11304F02E9E200D1124222EF32DF0623F2E08C0D3
S11305008C3621F4832D8068382E02C0883641F45D
S1130510F70193FD859193FF81917F018111B3CF01
S1130520982F9F7D9554933028F40C5F1F4F9FE3C1
S113053099830DC0833631F0833771F0833509F028
S113054059C021C0F801808189830E5F1F4F882420
S11305508394912C530113C02801F2E04F0E511CD7
S1130560F801A080B18036FE03C0692D70E002C09E
S11305706FEF7FEFC5010E9445054C018201F32D09
S1130580FF773F2E16C0280122E0420E511CF801CD
S1130590A080B18036FE03C0692D70E002C06FEF09
S11305A07FEFC5010E9433054C01F32DF0683F2E07
S11305B0820133FC1BC0822D90E088169906B0F4AA
S11305C0B60180E290E00E9450052A94F4CFF50130
S11305D037FC859137FE81915F01B60190E00E945E
S11305E0500521102A9421E0821A91088114910463
S11305F071F7E8C0843611F0893641F5F80137FE09
S113060007C060817181828193810C5F1F4F08C094
S113061060817181072E000C880B990B0E5F1F4FB0
S1130620F32DFF763F2E97FF09C090958095709526
S113063061957F4F8F4F9F4FF0683F2E2AE030E047
S1130640A3010E948C05882E861845C0853731F495
S1130650232D2F7EB22E2AE030E025C0932D997FE2
S1130660B92E8F36C1F018F4883579F0B5C08037CB
S113067019F0883721F0B0C0E92FE061BE2EB4FE36
S11306800DC0FB2DF460BF2E09C034FE0AC0292F13
S11306902660B22E06C028E030E005C020E130E03C
S11306A002C020E132E0F801B7FE07C06081718129
S11306B0828193810C5F1F4F06C06081718180E04D
S11306C090E00E5F1F4FA3010E948C05882E8618B0
S11306D0FB2DFF773F2E36FE0DC0232D2E7FA22E3D
S11306E0891458F434FE0BC032FC09C0832D8E7E6D
S11306F0A82E05C0B82CA32C03C0B82C01C0B92C5B
S1130700A4FE0FC0FE01E80DF11D8081803321F4A9
S11307109A2D997EA92E09C0A2FE06C0B394B39463
S113072004C08A2D867809F0B394A3FC11C0A0FEFE
S113073006C0B21488F4280C922C9B180EC0B21474
S113074060F4B60180E290E00E945005B394F7CFC4
S1130750B21418F42B1802C0982C212CA4FE10C03B
S1130760B60180E390E00E945005A2FE17C0A1FCF0
S113077003C088E790E002C088E590E0B6010CC0B1
S11307808A2D867859F0A1FE02C08BE201C080E276
S1130790A7FC8DE2B60190E00E945005891438F45C
S11307A0B60180E390E00E9450059A94F7CF8A94B2
S11307B0F301E80DF11D8081B60190E00E9450051F
S11307C08110F5CF222009F442CEB60180E290E0F8
S11307D00E9450052A94F6CFF6018681978102C0C3
S11307E08FEF9FEF2B96E2E10C9406060F931F9375
S11307F0CF93DF93869F8001879F100D969F100DE6
S11308001124C8010E941204EC01009729F0A801E8
S113081060E070E00E943E05CE01DF91CF911F9110
S11308200F9108950F931F93CF93DF938230910517
S113083010F482E090E0E0915A01F0915B0120E035
S113084030E0A0E0B0E0309719F14081518102819D
S1130850138148175907C8F08417950769F410974E
S113086031F012960C93129713961C9327C00093A1
S11308705A0110935B0122C02115310519F042176A
S1130880530718F49A01BD01EF01DF01F801DBCF32
S113089021153105F9F0281B390B2430310580F47A
S11308A08A819B816115710521F0FB019383828309
S11308B004C090935B0180935A01FE01329644C0B8
S11308C0FE01E20FF31F8193919322503109398382
S11308D028833AC02091580130915901232B41F4C7
S11308E02091020130910301309359012093580162
S11308F020910001309101012115310541F42DB7FA
S11309003EB74091040150910501241B350BE09141
S11309105801F0915901E217F307A0F42E1B3F0B85
S11309202817390778F0AC014E5F5F4F241735075D
S113093048F04E0F5F1F5093590140935801819323
S1130940919302C0E0E0F0E0CF01DF91CF911F91DD
S11309500F910895CF93DF93009709F481C0FC01B0
S1130960329713821282A0915A01B0915B011097C1
S113097081F420813181820F931F2091580130919D
S113098059012817390751F5F0935901E09358019B
S113099067C0ED0120E030E0CE17DF0740F44A8164
S11309A05B819E0141155105F1F0EA01F5CFD38336
S11309B0C28340815181840F951FC817D90759F408
S11309C088819981840F951F0296918380838A81FF
S11309D09B81938382832115310529F4F0935B0174
S11309E0E0935A013DC0E901FB83EA83499159919F
S11309F0C40FD51FEC17FD0761F480819181840F2A
S1130A00951F0296E90199838883828193819B8350
S1130A108A83E0E0F0E012968D919C911397009701
S1130A2019F0FD01DC01F7CF8D919C9111979D0187
S1130A302E5F3F4F820F931F20915801309159012F
S1130A402817390769F4309729F410925B01109242
S1130A505A0102C013821282B0935901A093580123
S1130A60DF91CF910895FC01059061507040011011
S1130A70D8F7809590958E0F9F1F0895DC0101C0D3
S1130A806D9341505040E0F70895FC01615070406F
S1130A9001900110D8F7809590958E0F9F1F0895AF
S1130AA00F931F93CF93DF93FB01238121FD03C099
S1130AB08FEF9FEF2CC022FF16C0468157812481FF
S1130AC035814217530744F4A081B1819D012F5F02
S1130AD03F4F318320838C93268137812F5F3F4F93
S1130AE03783268314C08B01EC01FB010084F1855C
S1130AF0E02D0995892BE1F6D80116968D919C91EC
S1130B001797019617969C938E931697CE01DF91B3
S1130B10CF911F910F910895FA01AA27283051F11E
S1130B20203181F1E8946F936E7F6E5F7F4F8F4F1A
S1130B309F4FAF4FB1E03ED0B4E03CD0670F781F79
S1130B40891F9A1FA11D680F791F8A1F911DA11D5E
S1130B506A0F711D811D911DA11D20D009F4689497
S1130B603F912AE0269F11243019305D3193DEF63F
S1130B70CF010895462F4770405D4193B3E00FD0F5
S1130B80C9F7F6CF462F4F70405D4A3318F0495DE0
S1130B9031FD4052419302D0A9F7EACFB4E0A695C3
S1130BA09795879577956795BA95C9F700976105E5
S1130BB0710508959B01AC010A2E0694579547953B
S1130BC037952795BA95C9F7620F731F841F951F30
S1130BD0A01D08952F923F924F925F926F927F9241
S1130BE08F929F92AF92BF92CF92DF92EF92FF9239
S1130BF00F931F93CF93DF93CDB7DEB7CA1BDB0BE5
S1130C000FB6F894DEBF0FBECDBF09942A88398889
S1130C1048885F846E847D848C849B84AA84B98490
S1130C20C884DF80EE80FD800C811B81AA81B9819C
S1130C30CE0FD11D0FB6F894DEBF0FBECDBFED01B0
S1090C400895F894FFCFB3
S1130C4600005C01200048656C6C6F2066726F6D55
S1130C5620496F5420626F6172642E205468697350
S1130C662069732053772073657269616C20696EFD
S1130C7674657266616365203A29200D00416463D8
S1130C862076616C7565206973203A202564200DF1
S1050C960A004E
S9030000FC
