:100000000C9434000C943E000C943E000C943E0082
:100010000C943E000C943E000C943E000C943E0068
:100020000C943E000C943E000C943E000C943E0058
:100030000C943E000C943E000C943E000C943E0048
:100040000C943E000C943E000C943E000C943E0038
:100050000C943E000C943E000C943E000C943E0028
:100060000C943E000C943E0011241FBECFEFD8E04C
:10007000DEBFCDBF0E94B5000C94ED000C940000D3
:10008000662311F05E9801C05E9A442311F05B98DC
:1000900001C05B9A222311F05D9808955D9A08953E
:1000A000569A559A539A20E040E060E00E94400042
:1000B0000895613061F028F0623079F0633099F092
:1000C00018C020E040E061E00E944000089520E078
:1000D00041E060E00E944000089521E040E060E0DF
:1000E0000E944000089521E040E061E00E9440004D
:1000F000089520E040E060E00E94400008950F93E2
:100100001F93CF93DF93EC010E944000101611065D
:100110000CF580E090E0E7EBFBE03197F1F700C0F1
:100120000000019608171907B1F70BC0E7EBFBE0D9
:100130003197F1F700C00000019608171907B1F7D1
:100140000FC020E040E060E0CE010E94400080E06F
:1001500090E0ECCF20E040E060E0CE010E94400063
:10016000DF91CF911F910F910895CF93DF931F924D
:10017000CDB7DEB7CE0101960E94500020E041E0ED
:1001800060E0CE0101960E9440002FEF8EE994E2DC
:10019000215080409040E1F700C0000020E040E0A6
:1001A00060E0CE0101960E94400063E0CE0101961E
:1001B0000E9459002FEF8EE994E221508040904038
:1001C000E1F700C0000008EC10E021E040E060E052
:0E01D000CE0101960E947F00F6CFF894FFCF7B
:00000001FF
